:020000040000FA
:0400000007EF00F016
:10000800018209ED00F046EF00F00600F2AA0FEFBA
:1000180000F011EF00F01FEF00F0F2A416EF00F06F
:1000280018EF00F01FEF00F0F294670ED76E6A0E1B
:10003800D66E8C288C6E0192110034EC00F04BECDB
:1000480000F0F28EF28CF28AF294870ED56E670E6B
:10005800D76E6A0ED66E03002FEF00F007EF00F0A0
:100068009380928AC180C182C184C18695909592FD
:10007800959495969598959A959C959E010E836E64
:100088009C8E120001900192000121EF00F0F70E02
:08009800D36E0F0E9B6E1200E7
:020000040020DA
:08000000FFFFFFFFFFFFFFFF00
:020000040030CA
:0E000000FF091F1EF38385FFFFC0FFE0FF40D6
:00000001FF
