:020000040000FA
:0400000096EF09F07E
:101000000048656C6C6F0073616C757400009DEC3A
:1010100009F061EC09F0E2EC08F081B012EF08F0A1
:1010200014EF08F02AEF08F0010EAFEC08F0000E04
:101030000B6E010E0C6E100E0D6E000E12EC09F010
:101040000F0EAFEC08F0010E086E000E4CEC09F02C
:101050000DEF08F080BA2FEF08F031EF08F00DEF38
:1010600008F0010EAFEC08F0000E0B6E070E0C6ED0
:10107000100E0D6E000E12EC09F0140EAFEC08F01D
:101080000DEF08F000EF00F0016E01C003F0000E5C
:10109000026E01AE4EEF08F050EF08F053EF08F08B
:1010A0008B8A54EF08F08B9A8BA859EF08F05BEF0E
:1010B00008F05FEF08F0D880033662EF08F00350C5
:1010C0000324036E8B8600F000F000F000F000F0C7
:1010D00000F000F000F000F000F000F000F08B965F
:1010E000D8900136022A070E026479EF08F07BEFF0
:1010F00008F049EF08F01200076E110E066E3A0E66
:10110000E82EFED7062EFCD700D0800E046E120EFD
:1011100080EC09F0040E066E3E0EE82EFED7062E79
:10112000FCD707C004F0130E80EC09F0040E066E25
:101130003E0EE82EFED7062EFCD7C00E046E120E11
:1011400080EC09F0040E066E3E0EE82EFED7062E49
:10115000FCD7000E046E120E80EC09F01200076E30
:10116000110E066E3A0EE82EFED7062EFCD700D0E2
:10117000000E046E120E80EC09F0040E066E3E0E98
:10118000E82EFED7062EFCD707C004F0130E80EC25
:1011900009F0040E066E3E0EE82EFED7062EFCD792
:1011A000400E046E120E80EC09F0040E066E3E0E28
:1011B000E82EFED7062EFCD7000E046E120E80EC31
:1011C00009F012008DEC09F0979C8E9C110E086EB0
:1011D0003A0EE82EFED7082EFCD700D08E8C000EDB
:1011E00073EC09F0010E73EC09F0000E046E120EA0
:1011F00080EC09F0310E086EB20EE82EFED7082EF4
:10120000FCD700D0320EAFEC08F03C0EAFEC08F08B
:101210000C0EAFEC08F0010EAFEC08F0060EAFECD0
:1012200008F012000E6E030E0E6019EF09F01BEFAE
:1012300009F030EF09F00F0E0B6421EF09F023EFF6
:1012400009F025EF09F030EF09F00BC008F00E505F
:101250004CEC09F00CC008F00DC009F031EC09F0BD
:1012600012003DEF09F008C0F6FF09C0F7FF0800C3
:10127000F5507CEC08F0084A092A08C0F6FF09C0BE
:10128000F7FF0800F5500009D8A449EF09F04BEF2B
:1012900009F033EF09F01200096E0950D8A453EF9A
:1012A00009F055EF09F05AEF09F00850800F0A6E67
:1012B0005DEF09F00850C00F0A6E0A50AFEC08F05D
:1012C00012009380928AC180C182C184C1869590A8
:1012D0009592959495969598959A959C959E000EC5
:1012E0008C6E9C8E1200046E8994400E44EC08F0C3
:1012F000045044EC08F0000E44EC08F0898412001D
:10130000056E8994400E44EC08F0055044EC08F05A
:10131000045044EC08F08984120092949488949AC2
:10132000949689848B888B9A8B961200000EF86EA7
:10133000100EF76E000107EF08F0F70ED36E0F0ED8
:041340009B6E12008E
:020000040020DA
:08000000FFFFFFFFFFFFFFFF00
:020000040030CA
:0E000000FF091F1EF38385FFFFC0FFE0FF40D6
:00000001FF
